:10000000000080311A28FF3F7E1480312100911CAE
:1000100010282000911C10288731F22780311828E1
:100020002100111E18282000111E18288731CD2705
:100030007E10090080311C28F430D5000130D60034
:100040004030D7000030D8009030D9000130DA00BD
:100050004030DB000130DC00E330DD000730DE0043
:100060007130DF000F30E000203084000030850068
:1000700022308F316B278031A03084000030850022
:1000800040308F316B2780317E102000472844227A
:100090008031752180318B170B1781218031DB2056
:1000A0008031182280319022803164002100401C70
:1000B0006528400C0739033A03196328400C0739B7
:1000C000043A031D6528682080312F22803155288D
:1000D0008B130630BA2080314A08D4004908D30077
:1000E0008B172F083004031D78286A2380318A2853
:1000F00054083402031D7E28530833020318822853
:100100006A23803132085402031D882831085302C3
:1001100003188E285408B2005308B100AF0A03191F
:10012000B00A01303002003003192F02031C08000E
:10013000AF01B0018B133608CA003508C9000F3073
:10014000CB00CC01932231084902CF0032084A3B50
:10015000D00033084F07D1003408503DD200510E73
:100160000F39B500520EF039B504520E0F39B600F2
:100170008B1708002000CC00CB00CB0DCB0D21004D
:100180001D0820004B0683394B0621009D001D14DD
:100190000530890BC928000021009D142000111F83
:1001A000CE28111321001C082000CA0021001B08C2
:1001B0002000C90008000D302000CD00FD30CC002B
:1001C000A230890BE128CC0BE128CD0BE1280000FF
:1001D0006400212180310A302000CD00BE30CC00E7
:1001E0007930890BF128CC0BF128CD0BF1282100B7
:1001F000401AFD282000CE0101291E268031200052
:10020000CE00CF014E08332180310A302000CD00CE
:10021000BE30CC007930890B0B29CC0B0B29CD0BD0
:100220000B290130492180310A302000CD00BE3039
:10023000CC007930890B1A29CC0B1A29CD0B1A293D
:10024000080020007E30CA01602180310330602127
:100250008031CA07AB3060218031CA074A0860216B
:100260008031EF306029CA007E30CB0160218031BF
:10027000043060218031CB07AE3060218031CB0764
:100280004A0860218031CB074B0860218031EF3074
:1002900060292000CA007E30CB016021803104300B
:1002A00060218031CB07AF3060218031CB074A0815
:1002B00060218031CB074B0860218031EF3060290D
:1002C000C9004008031961292100111A6C29200076
:1002D000490823009A007029A726803149088926F9
:1002E00021001116200049080800AE302000C90086
:1002F0000630CA00E2218031A930C9000330CA00AB
:10030000A82AC030CC000F30CD002030CE00C03045
:10031000E7218031033021004202E9300319410214
:100320000330031C9729C200E830C10003304402A7
:10033000E930031943020330031CA229C400E8304A
:10034000C30003304602E93003194502031CAC29FF
:100350000330C600E830C500003042020A300319FD
:1003600041020318B6290A30C100C201003044021C
:100370000A30031943020318C0290A30C300C4011C
:10038000003046020A30031945020318CA290A3010
:10039000C500C601400C64238031031CD229F13012
:1003A0002100C0052100400E890C64238031031C0C
:1003B000DE29210040081F398038C00001302000AC
:1003C000A80508004A08B8004908B7000800D0008E
:1003D000D1014E0851020318080051085007CF0000
:1003E000860087015108C900CA014C08C9074D0899
:1003F000CA3DFF21803181002000D10AE929003067
:100400008B1B0130CB008B134A0823009200200085
:100410004908230091001513151400000000200066
:100420004B1C142A8B17152A8B1323001308080062
:10043000210040181C2AAD2A01302000A805210007
:10044000400C073903192B2A013A03192C2A033AC5
:1004500003192D2A2E2AB82ACF2ACC2A08002000D8
:10046000281C080028102A302000D4008D30890B69
:10047000372AD40B372A0032C0302000CC000F308E
:10048000CD00C030CE00D42A5A228031552280318E
:100490008622803171228031772280317C22803126
:1004A0008122803150238031482B7A3099001A18EC
:1004B0000800572A22008C0180308D008E013030D8
:1004C00021008C0060308D0005308E0023008E00EE
:1004D0008D018C01603024008D008C01210095136A
:1004E0000800C0302C009300910192010800C03038
:1004F0009600940195010800C03099009701980179
:100500000800C0309C009A019B0108007830200050
:100510009C00F9309B009A01911021009114080071
:1005200020001C150800CD01CE01491C9B2A4B0858
:10053000CD074C08CE3DCB35CC0DCA36C90C490889
:100540004A04031D952A4E08CA004D08C900080038
:100550004A08AE004908AD00080040102000C9015B
:10056000493582268031C90A490203180800B02A99
:10057000210040142000C9014935243E860087012E
:1005800021004108C03F4208C13F20000230C90A93
:10059000490203180800BC2A21004014602E2100E3
:1005A00040142000A4016A2EFF30D1000F30D20089
:1005B0001F30D1064C08D1054D08D2055206031D47
:1005C000E32A51084C06031D08004D08CA004C08D8
:1005D000C9002923803100308B1B01302000D0005E
:1005E0008B1323001513151595162000D3014D0804
:1005F0002300920020004C082300910020005308A3
:100600004E07CF0086008701010823009300940164
:100610001F3020005306031D0F2B23009512553069
:1006200023009600AA3096009514000000002000D8
:10063000CC0A0319CD0A2030D30A5302031CF72A2F
:10064000230015112000501C272B8B1708008B133B
:10065000080000308B1B0130CB008B134A082300AD
:100660009200200049082300910015131516151556
:1006700055309600AA309600951400000000230023
:10068000151120004B1C462B8B1708008B130800FC
:1006900021009D01D0309E009F019B019C0108001C
:1006A000210091121112083023009F0090309D000C
:1006B00024309E0001309C00A0309B0020002030A0
:1006C000C101BF01C000080007392000D200053079
:1006D000520208005408B4005308B3000800200078
:1006E000280C7F39FC0020307C0203188F2B20005F
:1006F000280C7F39FC00FC0AFC0D28087C06013917
:100700007C06A8002100400C073984000530040253
:100710000318080088310435073E82000800280CC1
:100720007F39203A031D822B2100400C0739313ECE
:10073000E4248031772B8731762F20003608F700AC
:100740003508F6004F2D20003608F7003508F60072
:10075000A52D5E2C2100401C0800400C0739FA0032
:10076000FA0AFA0D40087A06F1397A06C000400C00
:100770000739FA0005307A02031CC02BF130C0059E
:100780002E258031D32B74268031C130F30197247C
:1007900080311B258031D32B74268031C330F30187
:1007A000972480314A252000281408002100401C8D
:1007B0000800400C07390319C32B400C0739013AD4
:1007C0000319CC2B400C0739023A031D080074268C
:1007D0008031C530F301972480312B258031D32B14
:1007E0002100401C0800400C0739031D002CA126E5
:1007F0008031C130F301732480311B258031D32B2C
:10080000400C0739013A031D0C2CA1268031C3305E
:10081000F30173248031D22B400C0739023A031DB7
:100820000800A1268031C530F30173248031ED2BFF
:1008300021004018401E0800400EFA007A0C0739CB
:10084000FA00FA0AFA0EFA0D40087A061F397A06FB
:10085000C000400E890C0739FA0005307A02031CEB
:10086000332C1F30C0051E268031CD248031D32B80
:10087000BB2480310310401C0314031C422C2100B4
:100880004014C02B21004010C02B2100401C080048
:100890000310401E0314031C502C21004016522C40
:1008A00021004012401A562CFB01592C1E26803183
:1008B000FB00FC017B08CD248031D32B7908013A61
:1008C0000319182C033A0319F02B063A0319D62BF7
:1008D0000C3A0319AA2B893A0319452C093A031932
:1008E000382C722C0800F80086008701403FF40085
:1008F000413FF50072087007F6007308713DF7007C
:1009000075087702031D862C740876027808860025
:1009100087010318922C7208810241317308813BD0
:100920007F3108007008C03F7108C13F0800F8001F
:1009300086008701403FF400413FF50072087407CC
:10094000F6007308753DF70071087702031DAA2CA5
:10095000700876027808860087010318B62C7208A2
:10096000810741317308813D7F3108007008C03F25
:100970007108C13F08007E30F10107258031033046
:1009800007258031F107AB3007258031F107710869
:1009900007258031EF3007250800F1007E30F20195
:1009A00007258031043007258031F207AE30072556
:1009B0008031F207710807258031F2077208072598
:1009C0008031EF3007250800F1007E30F201072565
:1009D0008031073007258031F207A13007258031AB
:1009E000F207303007258031F2073030072580319B
:1009F000F207303007258031F20771080725803172
:100A0000F207720807258031EF3007250800F00053
:100A1000200040080319082D2100111A132D700819
:100A200023009A00172DA7268031700889262100FF
:100A30001116700808004014F0017035243E86003D
:100A400087014108C03F4208C13F0230F00A7002EE
:100A5000031808001D2D21004014602E21004018AD
:100A6000332D1426080001302000A8053D2D1B253C
:100A700008004A2508002B2508002100400C0739F2
:100A80000319372D013A0319392D033A03193B2D68
:100A9000492D0800210040142000A4016A2E3326AD
:100AA00080310630F101F0070318F10A7708F300EE
:100AB0007608F200FF25803171082000C30070081D
:100AC000C2005C08C7005B08C6005A08C500590888
:100AD000C40047084302031D6F2D46084202031855
:100AE000762D4208C6024308C73B782DC601C701D0
:100AF000C8014835443E91268031203E4026803151
:100B00000318882D48357B2680310318810A942DDF
:100B10004835203E91268031443E402680310318DE
:100B2000942D4835292680314835582648355D3E74
:100B30008600413F8A00403F0A0085312000023094
:100B4000C80A480203180800792D33268031053081
:100B5000F101F0070318F10A7708F3007608F200B4
:100B6000FF25803171082000C7007008C6005808B2
:100B7000C5005708C4005608C3005508C200430802
:100B80004702031DC52D420846020318CC2D460816
:100B9000C2024708C33BCE2DC201C3014608C407A9
:100BA0004708C53DC8014835423E99268031203E60
:100BB0004C2680310318E22D48357B2680310318FE
:100BC000810AEE2D4835203E99268031423E4C2642
:100BD00080310318EE2D48352926803148355826B6
:100BE00048355D3E8600413F8A00403F0A0085311E
:100BF00020000230C80A480203180800D32DF4016F
:100C0000F501701C072E7208F4077308F53DF235E4
:100C1000F30DF136F00C70087104031D012E7508F8
:100C2000F1007408F00008004010F00170358226D1
:100C30008031F00A700203180800162E400E890C4D
:100C40000739023E840088300318013E8500000801
:100C50000800203E860001308701810200304131CA
:100C6000813B7F3108002100400E890C0739FD3E91
:100C7000840087300318013E85000008F00008005A
:100C80008600403FFA00413FFB0079087B02031DCC
:100C9000080078087A0208008600403FFA00413FC9
:100CA000FB0079087B02031D080078087A0208001F
:100CB000203E86008701403FF000413FF1000800E0
:100CC00046082000A500210045082000A400A60138
:100CD000A7010800A501210044082000A700210069
:100CE00043082000A6000800E830F0000330F100BF
:100CF000C830F2000800203E8600013087018107DD
:100D000041310800243E860000308701C03FC13FCA
:100D1000023481002030BF0A3F020318BF01C00324
:100D2000080086008701403FF800413FF900483540
:100D3000080086008701403FF800413FF900483530
:100D400008000A30F000C830F101F200080011126A
:100D500020003F08A03E860087010800BE0A3E082A
:100D60000F39031DB52EBB2686312100401CBA2E3B
:100D700083316F2B762F14278631FD007D080319F0
:100D8000E42E2000A901AA017D083C06031DE22EE5
:100D900080303B020318CE2EBB0A102F80303B065A
:100DA000031D102FBB0A7D088038BD002D082E04BE
:100DB0000319102F3D08F9002E088A002D080A009B
:100DC0008631102FBB01102F20003C080319FD2E87
:100DD00002303B02031CFD2E80303B020318FD2E27
:100DE0003C08BD002D082E040319FD2E3D08F90016
:100DF0002E088A002D080A00863120000330BB012E
:100E00002A02E83003192902031C0D2FE8302906B5
:100E1000033003192A06031D102FA90A0319AA0A71
:100E20007D082000BC00080004305B278631710873
:100E3000F5007008F40000307502303003197402B8
:100E4000031C003400307502973003197402031C30
:100E5000302F00307502FA3003197402031C083475
:100E6000013075025F3003197402031C3E2F0130FC
:100E70007502C23003197402031C04340230750277
:100E80002730031974020230031C4D2F75028A307B
:100E9000031974020230031C08007502EF300319B5
:100EA0007402031C003403307502523003197402BB
:100EB000031C01340034F300F200F20DF20D2100A6
:100EC0001D087206833972069D001D140530890BBA
:100ED000672F000021009D142000111F6C2F11139B
:100EE00021001C08F1001B08F0000800FA017A3507
:100EF000243EC5278631203EB32786310318872F2D
:100F00007A3586317B2686310318810AA12F7A35FE
:100F1000203EC5278631243EB32786310318952FFE
:100F20007A35863129268631A12F7A35243E8600EE
:100F300087017A35203E84008501403F803F413F54
:100F4000813F7A358631582686317A355D3E860076
:100F5000413F8A00403F0A0002308731FA0A7A0294
:100F600003180800772F8600403FF600413FF70046
:100F70007608013EF8000030773DF90075087902E7
:100F8000031D080074087802080086008701403FAE
:100F9000F400413FF5007A35080020304002031884
:100FA000E02F4108A03E86008701010823009A0037
:100FB00020002030C10A41020318C101C00A080004
:100FC0002100111208007108F3007008F2000630C9
:100FD000F235F30D890BE82F72082C00910073088D
:100FE00092000800911037083804031908003808E7
:100FF0008A0037080A0087310800073405340334B3
:10100000013400340E341134143417341A3483315B
:101010009B2B83319B2B83319B2B83319D2B8331E6
:10102000A32BFF3FFF3FFF3FFF3FFF3FFF3FFF3F40
:101ED000FF3FFF3FFF3F640080010131890B6C2F02
:101EE00000347108F3007008F2000630F235F30D8B
:101EF000890B762F72082C00970073089800080051
:020000040001F9
:04000E00DCC9FFF753
:00000001FF
