:10000000000080312028FF3F7E14803120007F08CF
:10001000D2002100911C13282000911C13288D313F
:10002000702580311B282100111E1B282000111E65
:100030001B288F31252720005208FF007E10090061
:1000400080312228883084008D3085005B30860026
:10005000003087000C308D314C25803120308400F9
:10006000003085002A308D3146258031A030840053
:100070000030850040308D3146257E1020008631CD
:10008000F72E55292100401C08008E319C26803116
:100090002100400C0739FA00FA0AFA0D40087A06E6
:1000A000F1397A06C000400C0739FA0005307A02AF
:1000B000031C5C28F130C00585313525200028144B
:1000C00008002100401C0800400C0739003A031DBD
:1000D0007A28E830F0000330F100C830F200003038
:1000E000F300C1308631592680318E310026200040
:1000F000281408002100400C0739013A031D9128FB
:10010000E830F0000330F100C830F2000030F300B6
:10011000C3308631592680318D3194252000281432
:1001200008002100400C0739023A031D0800E8309E
:10013000F0000330F100C830F2000030F300C530A9
:100140008631592680318D3164252000281408001D
:100150002100401C0800400C0739003A031DC1284B
:100160000A30F0000030F100C830F2000030F30037
:10017000C1308631812680318E310026200028143E
:1001800008002100400C0739013A031DD8280A3025
:10019000F0000030F100C830F2000030F300C3304E
:1001A0008631812680318D31942520002814080065
:1001B0002100400C0739023A031D08000A30F00004
:1001C0000030F100C830F2000030F300C530863155
:1001D000812680318D3164252000281408002100FB
:1001E000401C0800401E0800400EFA007A0C073937
:1001F000FA00FA0AFA0EFA0D40087A061F397A0652
:10020000C000400E890C0739FA0005307A02031C41
:100210000B291F30C005400E890C0739FA3E8400B7
:1002200087300318013E8500000887318D272000A4
:10023000281408008E319C26803103102100401CB8
:100240000314031C262921004014282921004010F2
:10025000853135252000281408002100401C0800A5
:100260000310401E0314031C3829210040163A29AC
:100270002100401240183F29FC01FD014F29400E8A
:10028000890C0739FA3E840087300318013E850047
:100290000008FA00FB017A08FC007B08FD007C08DE
:1002A00087318D272000281408007908013A0319A6
:1002B000EF28033A0319A828063A031961280C3AD3
:1002C00003194228893A03192D29093A03191A29D1
:1002D000692908002100400E890C0739F53E840089
:1002E00087300318013E85000008053EF00000300D
:1002F00003180130F1007708F3007608F2008E3120
:10030000B726813171082000CF007008CE00620846
:10031000CD006108CC006008CB005F08CA004B0824
:100320004F02031D95294A084E0203189C294E08C6
:10033000CA024F08CB3B9E29CA01CB014E08CC070D
:100340004F08CD3DD001023050020318080050354F
:100350004A3E86008701403FF800413FF900503592
:10036000203E86008701403FFA00413FFB007908AC
:100370007B02031DBD2978087A020318C92950356C
:10038000203E860087010130810741310318810A30
:10039000EB295035203E86008701403FF800413F61
:1003A000F90050354A3E86008701403FFA00413F40
:1003B000FB0079087B02031DDF2978087A02031805
:1003C000EB295035203E8600870101308102413102
:1003D0000030813B7F315035203E86008701403F11
:1003E000F000413FF1005035633E86008701413FF8
:1003F0008A00403F0A0081310130F800780820006F
:10040000D007A3292100400E890C0739F53E84004E
:1004100087300318013E85000008063EF0000030DA
:1004200003180130F1007708F3007608F2008E31EE
:10043000B726823171082000CB007008CA005E0820
:10044000CF005D08CE005C08CD005B08CC004F08F3
:100450004B02031D2D2A4E084A020318342A4A086B
:10046000CE024B08CF3B362ACE01CF01D00102305D
:1004700050020318080050354C3E86008701403F6B
:10048000F800413FF9005035203E86008701403F8B
:10049000FA00413FFB0079087B02031D512A7808CE
:1004A0007A0203185D2A5035203E8600870101300C
:1004B000810741310318810A7F2A5035203E86008A
:1004C0008701403FF800413FF90050354C3E86001F
:1004D0008701403FFA00413FFB0079087B02031D82
:1004E000732A78087A0203187F2A5035203E860046
:1004F00087010130810241310030813B7F3150352D
:10050000203E86008701403FF000413FF10050351A
:10051000633E86008701413F8A00403F0A008231E6
:100520000130F80078082000D007372AFA0102309D
:100530007A02031808007A35243E86008701403F7E
:10054000F400413FF5007A35203E86008701403FA8
:10055000F600413FF7007608013EF8000030773D95
:10056000F90075087902031DB72A74087802031888
:10057000C32A7A35203E8600870101308107413148
:100580000318810AF82A7A35203E86008701403F09
:10059000F400413FF5007A35243E86008701403F54
:1005A000F600413FF7007608013EF8000030773D45
:1005B000F90075087902031DDF2A74087802031810
:1005C000EC2A7A35203E86008701013081024131D4
:1005D0000030813B7F31F82A7A35243E860087013E
:1005E0007A35203E84008501403F803F413F813F76
:1005F0007A35203E86008701403FF000413FF10000
:100600007A35633E86008701413F8A00403F0A00F9
:1006100083310130F4007408FA07972A8B130630EF
:100620008731D327833120005408DA005308D900DA
:100630008B1729082A04031D222B5A08AC005908DD
:10064000AB00362B5A082C02031D282B59082B020D
:1006500003182E2B5A08AC005908AB002E085A027A
:10066000031D342B2D08590203183A2B5A08AE00EB
:100670005908AD000130A9070030AA3D01302A0217
:10068000003003192902031C0800A901AA018B13D9
:100690002D092100E00020002E092100E100E00AE0
:1006A0000319E10A20003408D4003308D3000F30C6
:1006B000D5000030D6008F310927210060082000C6
:1006C00053072100E20061082000543D2100E300AF
:1006D00020002B0821006207E40020002C082100E4
:1006E000633DE500640E0F392000B3002100650E64
:1006F000F0392000B3042100650E0F392000B4004A
:100700008B1708000A302000D900BE30D80079309D
:10071000890B882BD80B882BD90B882B8F3142273C
:100720008331FA302000D8005830890B952BD80B34
:10073000952B00002100401AA02BE001E101B42B11
:10074000400E890C0739FA3E840087300318013EB9
:10075000850000082000D800D90158082100E000D9
:10076000200059082100E10060088631A926833164
:10077000FA302000D8005830890BBC2BD80BBC2B8A
:10078000000002308631D0268331FA302000D800B4
:100790005830890BC92BD80BC92B000021004018F9
:1007A000D42B8E311426080001302000A805E12B3F
:1007B0008E31532608008D31A22508008D317C250D
:1007C00008002100400C0739003A0319D82B013AE0
:1007D0000319DB2B033A0319DE2BEF2B080008006B
:1007E000E030200056052100E3000F3020005705BF
:1007F0002100E400640820005706031D032C21009B
:10080000630820005606031D08005708D400560848
:10081000D3008F316027833100308B1B01302100E2
:10082000E5008B1323001513151595162100E6011D
:10083000203066020318542C200057082300920031
:100840002000560823009100210066082000580768
:100850002100E0006008860087010108E100E20154
:1008600061082300930021006208230094001F30D8
:1008700021006606031D3E2C2300951255302300EF
:100880009600AA3096009514000000000130200068
:10089000D6070030D73D01302100E0006008E607B0
:1008A00020306602031C1C2C230015112100651C3E
:1008B0005B2C8B1708008B13080085319C25843135
:1008C0002000CA004A08CB004B080319942CAF0142
:1008D000B0014B084306031D912C803044020318DD
:1008E000762C0130CA004A08C407C42C8030440664
:1008F000031DC42C0130CA004A08C4074B088038C5
:10090000CA004A08C60039083A040319C42C46082C
:10091000CA004A08F9003A088A0039080A008431F6
:10092000C42C2000C401C42C43080319B02C02308D
:100930004402031CB02C803044020318B02C43083E
:10094000CA004A08C60039083A040319B02C460800
:10095000CA004A08F9003A088A0039080A008431B6
:100960002000C40103303002E83003192F02031CB9
:10097000C02CE8302F06033003193006031DC42CA9
:100980000130AF070030B03D20004B08CA004A08D4
:10099000C3000800C0302000D6000F30D700203040
:1009A0002100E20062082000D800C03087314327D0
:1009B0008431033021004202E93003194102031C53
:1009C000E52C0330C200E830C10003304402E930B6
:1009D00003194302031CF02C0330C400E830C300A9
:1009E00003304602E93003194502031CFB2C033097
:1009F000C600E830C500003042020A300319410247
:100A00000318062D0030C2000A30C1000030440235
:100A10000A30031943020318112D0030C4000A30B4
:100A2000C300003046020A300319450203181C2D8A
:100A30000030C6000A30C500400C0739E20005301E
:100A40006202031C252DF130C005400E890C0739C8
:100A5000E20005306202031C312D40081F39803846
:100A6000C00001302000A80508000A30F600BE30A2
:100A7000F5007930890B3A2DF50B3A2DF60B3A2D0E
:100A800000008E319C268531FA30F5005830890BF4
:100A9000472DF50B472D00322100401A522DF7014A
:100AA000F801622D400E890C0739FA3E8400873028
:100AB0000318013E85000008F500F6017508F700EF
:100AC0007608F800770887318D278531FA30F500F0
:100AD0005830890B692DF50B692D003202308731B2
:100AE000B0278531FA30F5005830890B752DF50B9C
:100AF000752D003221004018802D8D31ED25080024
:100B000001302000A8058D2D8E31002608008D3182
:100B1000942508008D31642508002100400C073918
:100B2000003A0319842D013A0319872D033A03195A
:100B30008A2D9B2D0800080004308E31ED2685316A
:100B40007108F5007008F4000030750230300319A8
:100B500074020318AD2D0030080000307502973084
:100B600003197402031CBD2D00307502FA300319FD
:100B700074020318BD2D08300800013075025F3083
:100B800003197402031CCD2D01307502C230031904
:100B900074020318CD2D043008000230750227308E
:100BA00003197402031CDD2D023075028A3003190B
:100BB00074020318DD2D0230080002307502EF3098
:100BC00003197402031CED2D033075025230031912
:100BD00074020318ED2D01300800003008002000D9
:100BE000280C7F39FC0020307C02031C042E280CCA
:100BF0007F39203A031D222E2100400C0739013E87
:100C000086312F2685312000280C7F39FC00FC0A14
:100C1000FC0D28087C0601397C06A800222E8231B2
:100C20009622080020003408F7003308F6008231CD
:100C30000222080020003408F7003308F600813152
:100C40006A2108002100400C0739840005300402A5
:100C50000318080088310435003E82000800F300C4
:100C6000F4017E3087316927863105308731692765
:100C70008631F2007208F4064130873169278631E7
:100C8000F2007208F4060030873169278631F200DD
:100C90007208F4067308873169278631F2007208FA
:100CA000F4067408873169278631EF308731692768
:100CB0000800F800780886008701403FF400413FB3
:100CC000F50072087407F6007308753DF7007108A7
:100CD0007702031D6D2E700876020318792E7808AE
:100CE000860087017208810741317308813D7F3199
:100CF00008007808860087017008C03F7108C13F6E
:100D00000800F800780886008701403FF400413F62
:100D1000F50072087007F6007308713DF70075085A
:100D20007702031D952E740876020318A12E780809
:100D3000860087017208810241317308813B7F314F
:100D400008007808860087017008C03F7108C13F1D
:100D500008002000D600D7017E3087311D2786315C
:100D6000043087311D2786312000D5005508D7066D
:100D7000313087311D2786312000D5005508D70630
:100D8000560887311D2786312000D5005508D70623
:100D9000570887311D278631EF3087311D2708001E
:100DA0002000D600D7017E3087311D2786310430E0
:100DB00087311D2786312000D5005508D7063330EE
:100DC00087311D2786312000D5005508D7065608E3
:100DD00087311D2786312000D5005508D7065708D2
:100DE00087311D278631EF3087311D2708008E316E
:100DF000D22686318D31DD2586318B170B17843154
:100E0000CA2486318331822386318D31192586317A
:100E100064002100401C192F400C0739033A0319C4
:100E2000162F400C0739043A031D192F83310E2366
:100E300086318D31CE258631082F2000D400480818
:100E400003191F2F2100111A2A2F200054082300F4
:100E50009A003E2F111220005408D3004708A03EEC
:100E600086008701530881000130D3005308C7076B
:100E7000203047020318C7010130C80221001116B3
:100E80002000540808002100E000E101200058087B
:100E90002100610203180800610820005607D300F2
:100EA00057080318570AD4008E3182268731200054
:100EB000D9002100610860072000DA005A08860086
:100EC0008701590881000130D90059082100E10744
:100ED000462FF1002000480803196A2F2100111A3B
:100EE000752F710823009A00892F11127108F000E4
:100EF00020004708A03E860087017008810001306D
:100F0000F0007008C707203047020318C7010130FE
:100F1000C8022100111671080800F300F4017E30A8
:100F20008731692787310430873169278731F2009B
:100F30007208F4063130873169278731F200720870
:100F4000F4067308873169278731F2007208F406C6
:100F50007408873169278731EF30873169270800A6
:100F6000F300F4017E3087316927873104308731FF
:100F700069278731F2007208F40633308731692718
:100F80008731F2007208F4067308873169278731C8
:100F9000F2007208F4067408873169278731EF3050
:100FA0008731692708002000D6005608D500D50DE6
:100FB000D50D21001D082000550683395506210056
:100FC0009D001D140530890BE32F000021009D14A6
:100FD0002000111FE82F111321001C082000D4004D
:100FE00021001B082000D300080007340534033417
:100FF000013400340E341134143417341A34FF3FE2
:1010000086310F2E86310F2E86310F2E8631122E0D
:1010100086311A2EFF3FFF3FFF3FFF3FFF3FFF3F5D
:101A3000FF3F20001C15080020005408BA0053087E
:101A4000B900080020005408C2005308C100080073
:101A50007A30210099001A1808002B2DC0302C0074
:101A60009300910192010800C0302C00960094016F
:101A700095010800C0302C009900970198010800DA
:101A8000C0302C009C009A019B010800640080017A
:101A90000131890B472D0034FE0012001E00FE0BA1
:101AA0004D2D003421009D01D0309E009F019B01EF
:101AB0009C010800783020009C00F9309B009A01BE
:101AC00091102100911408002100401446082000C4
:101AD000A500210045082000A400A601A7010800D8
:101AE00020009110410842040319080042088A00AE
:101AF00041080A008D3108002100401446082000EA
:101B0000A500210045082000A400A601A7010800A7
:101B10009034013440340134F4340134403400341E
:101B2000BF340D34B0340D34210040142000A40122
:101B3000A501210044082000A7002100430820003F
:101B4000A6000800210040142000A401A5012100E6
:101B500044082000A700210043082000A600080038
:101B60007108F3007008F2000630F235F30D890BAE
:101B7000B52D72082C0097007308980008007108B2
:101B8000F3007008F2000630F235F30D890BC42D16
:101B900072082C0091007308920008002000281C95
:101BA00008002810C030D6000F30D700C030D90050
:101BB0005908D8008331F023080028302000D300D2
:101BC0000E30D4008D3122258D3141302000D300DC
:101BD0000030D4008D311C25080021004010F10197
:101BE00002307102031808007135243E8600870117
:101BF0000030C03FC13F0130F0007008F107F02D08
:101C000021004014F10102307102031808007135FF
:101C1000243E860087014108C03F4208C13F013091
:101C2000F0007008F107032E210040102000D401BD
:101C300002305402031808005435243E8600870100
:101C40000030C03FC13F0130D3005308D407182EE5
:101C500001302000D1005108C50745080F39031D88
:101C6000342E84315D248E312100401C3A2E853182
:101C7000EF250800823196220800210091121112EE
:101C8000083023009F0090309D0024309E000130DA
:101C90009C00A0309B002000C901C7012030D30068
:101CA0005308C8000800210040142000D40102306D
:101CB0005402031808005435243E86008701210091
:101CC0004108C03F4208C13F01302000D300530803
:101CD000D407572E22008C0180308D008E013030C9
:101CE00021008C0060308D0005308E00053023000F
:101CF0008E008D018C01603024008D008C0121004C
:101D00009513080000308B1B01302000D5008B1389
:101D1000540823009200200053082300910015135B
:101D20001514000000002000551C982E8B17992ECA
:101D30008B13230013080800F3017E3087316927D5
:101D40008E310330873169278E31F2007208F30635
:101D50001E30873169278E31F2007208F30673084E
:101D6000873169278E31EF30873169270800F40108
:101D7000F501701CBF2E7208F4077308F53D0130A1
:101D8000F235F30D890BC02E0130F136F00C890BC2
:101D9000C52E70087104031DB92E7508F100740872
:101DA000F00008008E316A268E318D3128258E3163
:101DB0008D315A258E318D312E258E318D31342540
:101DC0008E318D313A258E318D3140258E318E31D7
:101DD0003D268E318D3152250800F3007308F20044
:101DE000F20DF20D21001D087206833972069D0066
:101DF0001D140530890BFA2E000021009D142000CF
:101E0000111FFF2E111321001C08F1001B08F00008
:101E100008002000D701D801531C122F5508D707FE
:101E20005608D83D0130D535D60D890B132F01301A
:101E3000D436D30C890B182F53085404031D0C2FD0
:101E40005808D4005708D30008002030200048026A
:101E500003183F2F4908A03E860087010108230090
:101E60009A000130F00070082000C90720304902B4
:101E70000318C9010130F0007008C80708002100EC
:101E8000111208002000D6017E3087311D278F31C6
:101E9000033087311D278F312000D5005508D60625
:101EA0001E3087311D278F312000D5005508D606FA
:101EB000560887311D278F31EF3087311D270800E5
:101EC00000308B1B01302000D5008B1354082300F9
:101ED00092002000530823009100151315161515C4
:101EE00055309600AA30960095140000000023009B
:101EF00015112000551C7E2F8B1708008B1308002E
:020000040001F9
:04000E00DCC9FFF753
:00000001FF
